{
	"data": {
		"bytecode": {
			"linkReferences": {},
			"object": "60806040526001600055348015601457600080fd5b506096806100236000396000f300608060405260043610603f576000357c0100000000000000000000000000000000000000000000000000000000900463ffffffff16806360f96a8f146044575b600080fd5b348015604f57600080fd5b5060566058565b005b600160008082825401925050819055505600a165627a7a723058209839d68452e14ba0c776d8da9e465919fede54d29f01fe37b8bd880746ee9ef40029",
			"opcodes": "PUSH1 0x80 PUSH1 0x40 MSTORE PUSH1 0x1 PUSH1 0x0 SSTORE CALLVALUE DUP1 ISZERO PUSH1 0x14 JUMPI PUSH1 0x0 DUP1 REVERT JUMPDEST POP PUSH1 0x96 DUP1 PUSH2 0x23 PUSH1 0x0 CODECOPY PUSH1 0x0 RETURN STOP PUSH1 0x80 PUSH1 0x40 MSTORE PUSH1 0x4 CALLDATASIZE LT PUSH1 0x3F JUMPI PUSH1 0x0 CALLDATALOAD PUSH29 0x100000000000000000000000000000000000000000000000000000000 SWAP1 DIV PUSH4 0xFFFFFFFF AND DUP1 PUSH4 0x60F96A8F EQ PUSH1 0x44 JUMPI JUMPDEST PUSH1 0x0 DUP1 REVERT JUMPDEST CALLVALUE DUP1 ISZERO PUSH1 0x4F JUMPI PUSH1 0x0 DUP1 REVERT JUMPDEST POP PUSH1 0x56 PUSH1 0x58 JUMP JUMPDEST STOP JUMPDEST PUSH1 0x1 PUSH1 0x0 DUP1 DUP3 DUP3 SLOAD ADD SWAP3 POP POP DUP2 SWAP1 SSTORE POP JUMP STOP LOG1 PUSH6 0x627A7A723058 KECCAK256 SWAP9 CODECOPY 0xd6 DUP5 MSTORE 0xe1 0x4b LOG0 0xc7 PUSH23 0xD8DA9E465919FEDE54D29F01FE37B8BD880746EE9EF400 0x29 "
		},
		"gasEstimates": {
			"creation": {
				"codeDepositCost": "30000",
				"executionCost": "20087",
				"totalCost": "50087"
			},
			"external": {
				"parent()": "20366"
			}
		},
		"methodIdentifiers": {
			"parent()": "60f96a8f"
		}
	},
	"abi": [
		{
			"constant": false,
			"inputs": [],
			"name": "parent",
			"outputs": [],
			"payable": false,
			"stateMutability": "nonpayable",
			"type": "function"
		}
	]
}